:020000040800F2
:100000007006002085020008D5110008B50D000813
:10001000D1110008C50B00088D1300080000000076
:10002000000000000000000000000000DD110008DA
:10003000C90B000800000000D9110008E1110008F8
:100040009F0200089F0200089F0200089F0200080C
:100050009F0200089F020008CD0B0008F90B000862
:100060009F0200089F0200089F0200089F020008EC
:100070009F0200089F0200089F0200089F020008DC
:100080009F0200089F0200089F0200080000000075
:100090000000000000000000000000009F020008B7
:1000A0009F0200089F0200089F0200089F020008AC
:1000B0009F020008F91100084D1200089F02000875
:1000C0009F0200089F0200089F0200089F0200088C
:1000D0009F0200089F02000859130008000000005A
:1000E0009F0200089F0200089F0200080000000015
:1000F0000000000000000000000000009F02000857
:10010000000000009F0200089F0200089F020008F4
:1001100000000000000000000000000000000000DF
:100120009F0200089F0200089F0200089F0200082B
:100130009F02000800000000000000000000000016
:100140000000000000000000000000009F02000806
:100150009F0200089F0200089F0200089F020008FB
:100160009F0200089F02000800000000000000003D
:10017000000000000000000000000000000000007F
:10018000000000009F0200080000000000000000C6
:100190009F02000800F002F800F065F814A696E847
:1001A000000CB244B344DA4501D100F05CF8BAE87F
:1001B0000F000FA696E83000A5EB040504EB060738
:1001C000AAEB0704A7F101074FEA15154FEA34140B
:1001D000A4F10104AC4201D300F045F813F0010F83
:1001E00018BFFB1A43F0010300F001F8DBE71847E2
:1001F000B81E0000D81E0000103A24BF78C878C18D
:10020000FAD8520724BF30C830C144BF04680C601C
:1002100070470000704700000023002400250026DE
:10022000103A28BF78C1FBD8520728BF30C148BF59
:100230000B607047662901F0E186672901F0DE86D0
:10024000732900F04483002070471FB501F0C9FEF8
:1002500000F042FB04000020002101F035FEE060C8
:100260001FBD10B510BD00F037FC1146FFF7EDFFC4
:1002700001F0CEF800F055FC03B4FFF7F2FF03BC29
:1002800000F098FC0948804709480047FEE7FEE770
:10029000FEE7FEE7FEE7FEE7FEE7FEE7FEE7FEE736
:1002A00004480549054A064B70470000E51100085F
:1002B00095010008700000207006002070020020E8
:1002C000700200200FB41CB5074B06AA7B44694698
:1002D0000090059800F0D1FA0020694600F0E0FA9D
:1002E0001CBC5DF814FB0000D105000070B50C4685
:1002F0000546012A05D02878800600D5EA69002342
:1003000002E0012305E05B1C934202D2E05C00287E
:10031000F9D1A869E618C01AA861286A18442862A9
:100320002846AFF3008004E0D5E9012114F8010B61
:100330009047B442F8D32846AFF3008070BD2DE952
:10034000F0474FF0000A89460446C0F820A0204636
:10035000E1688847002876D0252806D0D4E9012115
:100360009047206A401C2062F1E7E16820460025A2
:100370008847C4F81CA006460027C4F818A02A2EF7
:1003800009D0304601F098FD38B304EB8708303EC1
:10039000C8F8186019E059F8041B204604EB8702DE
:1003A0009161E1688847012F064618D1E06900286D
:1003B00020DA25F020051DE0D8F8180000EB8000B9
:1003C00006EB40003038C8F818002046E16888473E
:1003D000064601F071FD0028EED1012F0AD02E2E25
:1003E00008D12046E16888477F1C0646022F45F069
:1003F0002005C4DBA069002803DA404245F001056E
:10040000A061E80701D025F01005B6B1A6F14100C2
:10041000192802D8203645F400654A463146204660
:1004200025604D46FFF706FF58B1012806D0ED1DA7
:1004300025F0070000F1080989E704E005F1040947
:1004400085E730468AE7206ABDE8F0877047704745
:1004500070472DE9FF4F0C461E464FF0FF378BB01B
:10046000D2E90001DDF860800A908A46C1F30A559E
:1004700005B93D46002108464FF00000BAF1000FD3
:1004800000F4400005DA00EB80004FF4400101EA7F
:1004900050004FEA9059B9F1010F00DDB9460A98B2
:1004A00050EA4A000ED044F61050A5F2FF354543FD
:1004B0002F14B8F1000F1ED07542291E1EDDC9F1A0
:1004C00000021CE0B8F1010F4FF0000001D0302114
:1004D00003E0F24305E02154401CB042FBDB304610
:1004E0000022002121540B99C1F80880C1E90020A5
:1004F0000FB0BDE8F08FBD1B6D1CDEE74A4600DA89
:10050000694206A800F072FA06AB93E8070003AB55
:1005100083E8070050460A9901F0EEF88DE80700DD
:10052000A0F500501F3800900398002D0ADD42F21C
:100530001F014A460844002303A90390684601F0BE
:1005400057FB09E0A0F500504A461F38002303A9D5
:100550000390684601F061FB8DE807000004000C81
:1005600003D04FF0FF30410800E01046B8F1000F13
:1005700003D00022009215461EE0751E05D400F03F
:10058000AFF9303262556D1EF9D5B34601220843EA
:1005900002D000227F1C04E02078302801D1002204
:1005A0007F1E002A099784D01DE0112D07DA00F084
:1005B00097F9303262556D1C50EA0102F5D10843BB
:1005C00002D00098C8B10EE00021681E05E0235C4F
:1005D000625C63542254401E491C8142F7DBAB46E7
:1005E000A81B401E0990002004F80B000B98099AE4
:1005F000C0F80880C0E9002B7AE711264FF0000808
:1006000057E72DE9F04F88460446D21D22F0070136
:1006100091B0D1E90001CDE90A0101F035FC0246B3
:100620000B98C00F01D02D2007E02068810701D56D
:100630002B2002E0202101EAC000032A099001D00A
:10064000072A05DB03464146204600F08FF90BE1FF
:100650002078800601D5E06900E00620B8F1650F3A
:10066000814606D0B8F1660F18D0B8F1670F70D187
:1006700031E00020B9F1110F009001DB112301E0FE
:1006800009F101030AAA01A90CA8FFF7E2FEDDE9BE
:100690000C70002609F10105834647E001204B4616
:1006A00000904FF000470AAA01A90CA8FFF7D1FE5D
:1006B000DDE90DB00C995D46002610B909F1010085
:1006C0000D18B9EB050003D4C0F1FF3609F101059F
:1006D000A5EB09002BE0B9F1010F01DA4FF0010998
:1006E0000020B9F1110F0090484601DD112300E010
:1006F00003460AAA01A90CA8FFF7ABFEDDE90C70BE
:100700004D4600268346207800070AD4AB4500DA20
:100710005D4601A8012D04DD411911F8011C3029A5
:1007200007D04F4502DA17F1040F04DA01208246A0
:100730000FE06D1EEEE7002F02DCED1B3E4403E0F0
:10074000781CA84200DD7D1CB81B00F1010A4FF0A7
:1007500000472078000703D4AA4501DB4FF0FF3A99
:100760000021B7F1004F0DF143088DF8431024D05C
:1007700002202B23002F01DA7F422D230A21021EA3
:10078000A0F1010000DC5FB197FBF1FC97FBF1F2F7
:1007900001FB1C7C17460CF1300C08F801CDEEE78C
:1007A000A8F1010003702188090501D5452100E069
:1007B0006521A0F1010800F8011C09980FA9A1EB1F
:1007C0000807FF1D00B10120411901EBEA70A16982
:1007D0003844081A401EA0612078C00602D4204682
:1007E000AFF30080099828B1D4E901219047206A2D
:1007F000401C20622078C00622D52046AFF300803E
:100800001EE0002E04DBB34502DD01A8805D00E0A0
:100810003020D4E901219047206A401C2062761CD8
:10082000AAF101005FEA000A0AD100F055F8C06899
:100830000168405CD4E901219047206A401C206295
:10084000281EA5F10105DCDC07E0D4E9012118F838
:10085000010B9047206A401C2062381EA7F1010757
:10086000F3DC2046AFF30080032011B041E6000026
:1008700001694A1C02610878704700B58FB0CDE964
:1008800001310021059105497944CDE90310114654
:100890006846FFF754FD0FB000BD0000E5FFFFFF05
:1008A0000A6802F8010B0A60704710B5436913B17A
:1008B000AFF3008001E0FFF719FD012010BD1278B1
:1008C00000F124010A7000224A700122EDE711684C
:1008D0004FF0FF32E9E70000004870472800002091
:1008E00030B5B0F10A0271F100034FEA900E4EEA02
:1008F000817EB0EB0E0061EB91014FEA101E4EEAD3
:10090000017E10EB0E0041EB11114FEA102E4EEA62
:10091000016E10EB0E0041EB11214FEA104E4EEA32
:10092000014E10EB0E0041EB1141401841F1000166
:100930004FEAD00040EA41704FEAD1014FEA81040A
:1009400044EA907410EB800544EB01046D1944EB0C
:100950000404521BA3414FF0000348BF0A3200D5E4
:1009600030BD401C41F1000130BD00002DE9F041D7
:100970001F46044603260168072A01F4006004DBD1
:1009800008B116A505E016A503E008B115A500E01D
:1009900015A521F010002060A069C01EA0610FB154
:1009A000401EA0612046AFF300804FB1D4E9012181
:1009B00038469047206A401C2062C01C206206E036
:1009C000206AFAE7D4E9012115F8010B9047761E59
:1009D000F8D22046AFF30080BDE8F0814E414E00D2
:1009E0006E616E00494E4600696E66002DE9F04763
:1009F000814616468AB0354878440DC88DE80D000A
:100A000032487844801C03AC0DC884E80D0041F6E0
:100A10009B300844372190FBF1F290FBF1F5A5F1F2
:100A2000800501FB12041B3C02D56442012000E05A
:100A30000020DFF898A080460027FA44AAF1BE0AF9
:100A40000EE0E0070AD03246684607EB4701012373
:100A50000AEB810101F0E1F88DE8070064107F1CCA
:100A6000002CEED1194F7F44AE3F19E0E80715D0B6
:100A700007EB04100DF1180A90E80E008AE80E004A
:100A8000C068F04201D1981908903246012306A9A6
:100A900003A801F0C2F803AB83E807006D10641CE3
:100AA000002DE3D14FF0010332466946B8F1000F43
:100AB00003A802D001F09CF801E001F0AEF8C9E90A
:100AC0000001C9F808200AB0BDE8F08780160000D0
:100AD00000487047080000207546FFF7F9FFAE4652
:100AE00005006946534620F00700854618B020B53A
:100AF000FFF7D6FBBDE820404FF000064FF000079F
:100B00004FF000084FF0000BAC46ACE8C009ACE871
:100B1000C009ACE8C009ACE8C00921F007018D4666
:100B2000704710B50446AFF300802046BDE8104082
:100B3000FFF7A2BB0000000030B44FF0013C50F8BA
:100B4000042B51F8043BCCFA52F4D51A20D1FCB94D
:100B500050F8042B51F8043BCCFA52F4D51A17D1B3
:100B6000B4B950F8042B51F8043BCCFA52F4D51A1E
:100B70000ED16CB950F8042B51F8043BCCFA52F466
:100B8000D51A05D1002CDAD030BC4FF000007047E8
:100B900029BAB1FA81F111F01801D1F12000844095
:100BA000F2D1CA40CB4012F0FF0213F0FF0330BC79
:100BB000D01A704701491820ABBEFEE7260002009C
:100BC00070470000FEE700007047000043F6144045
:100BD000C4F201000168C90708BF704740F269010B
:100BE000C2F200010A78B2FA82F252090A70016870
:100BF00041F001010160704743F61440C4F2010066
:100C00000068800758BF704700F0C2FB43F6300011
:100C1000C4F20200016841F002010160016841F084
:100C2000010101600020C4F20200D0F8001421F498
:100C30004071C0F80014D0F8001441F48071C0F87D
:100C4000001440F20441C4F202010A6822F01002CA
:100C50000A604A6842F440724A600A6942F010022F
:100C60000A61016821F440710160016841F48071FA
:100C70000160416821F010014160816841F44071D8
:100C80008160C16821F44071C160704740F200008A
:100C900040F26C01C2F20000C2F2000100780A6862
:100CA000104408607047000043F63000C4F20200B0
:100CB000016841F004010160016941F00101016135
:100CC00040F60000C4F20200016841F00101016039
:100CD000816841F003018160016821F00C0101602D
:100CE000C16821F00C01C1607047000010B540F6EA
:100CF0001004C4F202040120A0600A2000F05EFB90
:100D00004FF48030A0602068800709D420688007F5
:100D10005CBF20685FEA807002D420688007F2D54B
:100D20001020C4F200000F2181614FF6FF71C161F4
:100D300001214160016821F0010101604FF0804113
:100D40000A6842F001020A60216889071ED501681D
:100D5000C90711D12168890718D50168C9070BD1C6
:100D60002168890712D50168C90705D1216889075B
:100D70000CD50168C907E7D04FF0804001689FEDAE
:100D80000B0A21F00101016010BD00BF90ED050AC2
:100D90009FED071AB8EE400A80EE010A4FF080403E
:100DA000016821F00101016010BD00BF00000000DA
:100DB00000006842FEE7000043F63000C4F2020083
:100DC000016841F002010160016941F40011016113
:100DD00040F20040C4F20200016841F420210160A9
:100DE000416841F440714160816841F47021816043
:100DF000C16841F4A021C160416A41F044014162EF
:100E000045F20040C4F20000016841F40041016075
:100E1000016821F400410160416841F02A0141600C
:100E2000D221C1612B210162016841F00101016001
:100E30007047000045F21442C4F2000252F8143C1C
:100E400043F4806342F8143C52F8143C43F480733A
:100E500042F8143C1368DB0709D11368DB0704BFB1
:100E600013685FEAC37302D11368DB07F2D042F85C
:100E7000040C1068800709D4106880075CBF1068F4
:100E80005FEA807002D410688007F2D5106850685D
:100E90001068000609D4106800065CBF10685FEA9D
:100EA000006002D410680006F2D542F8041C1068F5
:100EB000400709D4106840075CBF10685FEA4070C3
:100EC00002D410684007F2D552F8140C40F40070B8
:100ED00042F8140C7047000043F63000C4F20200E0
:100EE000016841F00201016040F20C41C4F20201CC
:100EF00051F80C2C22F00F0241F80C2C0A6822F059
:100F00000F020A600A6842F005020A60416941F472
:100F10008041416143F60800C4F20100016841F0DC
:100F200011010160D0F8F81341F00301C0F8F81383
:100F3000D0F8001441F00301C0F800144EF2001084
:100F4000CEF2000040210160802101604EF2064097
:100F5000CEF2000020210170102141707047000086
:100F600080B54E203C21FFF765FF142000F026FAE3
:100F70004E203821FFF75EFF142000F01FFA4E20AC
:100F80003C21FFF757FF142000F018FA4E203821BB
:100F9000FFF750FF142000F011FA42F2107000F039
:100FA0000DFA4E203C21FFF745FF142000F006FA11
:100FB0004E203821FFF73EFF142000F0FFF94E20AD
:100FC0002C21FFF737FF142000F0F8F94E202821DC
:100FD000FFF730FF142000F0F1F94FF4FA6000F051
:100FE000EDF94E200C21FFF725FF142000F0E6F963
:100FF0004E200821FFF71EFF142000F0DFF94E20DD
:101000006C21FFF717FF142000F0D8F94E2068215B
:10101000FFF710FF142000F0D1F94FF4FA6000F050
:10102000CDF94E200C21FFF705FF142000F0C6F982
:101030004E200821FFF7FEFE142000F0BFF94E20DD
:10104000CC21FFF7F7FE142000F0B8F94E20C8219C
:10105000FFF7F0FE142000F0B1F94FF4FA6000F051
:10106000ADF94E202C21FFF7E5FE142000F0A6F983
:101070004E202821FFF7DEFE142000F09FF94E20BD
:101080008C21FFF7D7FE142000F098F94E2088211C
:10109000FFF7D0FE142000F091F94FF4FA6000F051
:1010A0008DF94E200C21FFF7C5FE142000F086F9C3
:1010B0004E200821FFF7BEFE142000F07FF94E20DD
:1010C0001C21FFF7B7FE142000F078F94E201821FC
:1010D000FFF7B0FE142000F071F94FF4FA60BDE89C
:1010E000804000F06BB90000F0B581B00D460446B9
:1010F000CC214E20012D08BF8C21FFF79BFE142030
:1011000000F05CF9C8214E20012D08BF8821FFF7AF
:1011100091FE142000F052F94E200C21FFF78AFEB8
:10112000142000F04BF94E200821FFF783FE142015
:1011300000F044F9207860B3013C00BF20F00F01BB
:10114000000101F10D0201F1090600F10D0700F1A6
:101150000905D1B24E20FFF76DFE142000F02EF9E4
:10116000F1B24E20FFF766FE142000F027F9F9B225
:101170004E20FFF75FFE142000F020F9E9B24E2068
:10118000FFF758FE142000F019F9A0780134002868
:10119000D4D101B0F0BD000070B58AB0054610EEA4
:1011A000100A0C4600F0ACFE41EC100B02AE06A19A
:1011B00030462A468DED000BFFF784F83046214675
:1011C000FFF792FF0AB070BD2573252E316600002F
:1011D000FEE70000FEE700007047000070470000D7
:1011E000FFF754BD4EF68850CEF20000016841F47E
:1011F000700101607047000040F21040C4F200002E
:101200000168C90720D0016821F00101016040F2A6
:101210006801C2F200010878012840F21440C4F2CB
:10122000020003D1016881F010010CE0097839B1A6
:1012300040F26901C2F200010978002918BF704725
:10124000016821F0100101607047000040F61000B5
:10125000C4F200000168C90708BF7047016821F0A7
:101260000101016040F269001421C2F20000C4F2E1
:10127000020100780A68012822F0100308BF82F0FA
:1012800010030B607047000043F64000C4F20200F8
:10129000016841F0010101607047000043F6400120
:1012A000C4F202010A6842F002020A6040F2004100
:1012B000C4F2000100220A6043F67F628A620A6873
:1012C00022F001020A60C862486940F001004861EA
:1012D000C86840F00100C860086840F0010008607C
:1012E0004EF20010CEF200004FF0005101604EF2BD
:1012F0001D40CEF2000060210170704743F64000AF
:10130000C4F20200016841F00401016040F60000EF
:10131000C4F200000021016043F67F618162016830
:1013200021F0010101604FF47A71C162C16841F09E
:101330000101C160016841F0010101604EF200103D
:10134000CEF200004FF0804101604EF21E40CEF21E
:10135000000070210170704744F20040C4F20000A8
:101360000168890658BF704741680268120609D4AF
:10137000026812065CBF02685FEA026202D4026879
:101380001206F2D5C9B2416070470000FEE70000C6
:101390004EF60C50BFF34F8FCEF2000001680422CE
:1013A00001F4E061C0F2FA5211430160BFF34F8FC4
:1013B00000BF00BF00BF00BFFAE700001021C4F269
:1013C00000010F228A61C86101204860086820F08E
:1013D000010008604FF08040026842F001020260A4
:1013E0000868C00709D10868C00704BF08685FEA39
:1013F000C07002D10868C007F2D0086820F0010070
:1014000008604FF08040016821F0010101607047E1
:10141000FFF7FCFB4FF4FA70FFF740FFFFF76EFF9A
:10142000FFF732FFFFF7C8FCFFF79AFDFFF73CFC20
:10143000FFF752FD9FED9B8A40F268059FED9FAA42
:101440009FEDA4BA42F29407C2F20005B3EE049AEB
:101450004FF0010A0FF280280FF29029B3EE0ECA66
:10146000B2EE04DA4FF0000B95A6C0F600078EA48A
:1014700010E000BF20460121FFF736FE4FF47A70DE
:10148000FFF79CFF38460221FFF72EFE4FF47A70DB
:10149000FFF794FF68780128ECD1FFF727FC4FF4A1
:1014A0007A6038EE008AFFF789FFFFF71FFC4FF4E0
:1014B0007A6038EE008AFFF781FFFFF717FC4FF4E0
:1014C0007A6038EE008AFFF779FFFFF70FFC4FF4E0
:1014D0007A6038EE008AFFF771FFFFF707FC4FF4E0
:1014E0007A6038EE008AFFF769FFFFF7FFFB4FF4E1
:1014F0007A6038EE008AFFF761FFFFF7F7FB4FF4E1
:101500007A6038EE008AFFF759FFFFF7EFFB4FF4E0
:101510007A6038EE008AFFF751FFFFF7E7FB4FF4E0
:101520007A6038EE008AFFF749FFFFF7DFFB4FF4E0
:101530007A6038EE008AFFF741FFFFF7D7FB4FF4E0
:101540007A6038EE008AFFF739FFFFF7CFFB4FF4E0
:101550007A6038EE008AFFF731FFFFF7C7FB4FF4E0
:101560007A6038EE008AFFF729FFFFF7BFFB4FF4E0
:101570007A6038EE008AFFF721FFFFF7B7FB4FF4E0
:101580007A6038EE008AFFF719FFFFF7AFFB4FF4E0
:101590007A6038EE008AFFF711FFFFF7A7FB4FF4E0
:1015A0007A6038EE008AFFF709FFFFF79FFB4FF4E0
:1015B0007A6038EE008AFFF701FFFFF797FB4FF4E0
:1015C0007A6038EE008AFFF7F9FEFFF78FFB4FF4E1
:1015D0007A6038EE008AFFF7F1FE88EE098AB4EEF1
:1015E0004A8AF1EE10FA09DAB4EE4B8AF1EE10FAFB
:1015F00085F800A012DD4FF4FA7042E03046012178
:1016000085F800B0FFF770FD4FF47A70FFF7D6FE53
:1016100038460221FFF768FD3CE700BFB4EE4B8A75
:10162000F1EE10FA08DCB4EE4C8AF1EE10FA03DDAC
:101630004FF4C87025E000BFB4EE4C8AF1EE10FA0A
:1016400008DCB4EE498AF1EE10FA03DD4FF496702F
:1016500017E000BFB4EE498AF1EE10FA06DCB4EEF2
:101660004D8AF1EE10FA01DDC8200AE0B4EE4D8A91
:10167000F1EE10FA07DCB5EE408AF1EE10FA02DD69
:101680006420FFF70BFE40460121FFF72DFD4FF4CC
:101690007A70FFF793FE4846B0EE480A0221FFF742
:1016A0007BFDF7E6000000005359533A302020201C
:1016B00020202020202020200000000000004842A0
:1016C0005359533A31204445544543543A3020202D
:1016D00000000000000020425359533A3120444595
:1016E000544543543A31202000000000446973748B
:1016F000616E63653A2000005FEA400C08BF91F01C
:10170000000F4FEA8C234FEAC12243EA51514FEABE
:101710001C5018BF00F5F0404FEA300018BF41F0F0
:1017200000415FEA6C5C00F02980BCF1FF3F08BF1C
:1017300040F080407047130C06BF12044FF0100CAD
:101740004FF0000C130E04BF12020CF1080C130F23
:1017500004BF12010CF1040C930F04BF92000CF1B2
:10176000020CD30F04BF52000CF1010C11464FF0D4
:101770000002A0F11F00A0EB0C00704711F0004F19
:1017800008BF704731F000413FF4D5AF0B0C06BFE6
:1017900009044FF0100C4FF0000C0B0E04BF0902AF
:1017A0000CF1080C0B0F04BF09010CF1040C8B0F9A
:1017B00004BF89000CF1020CCB0F04BF49000CF1EF
:1017C000010CCCF1200322FA03F341EA030102FAEF
:1017D0000CF2A0EB0C0000F10100704723F07F47F2
:1017E00020F07F4C80EA030000F00040ACEB0703E0
:1017F00003F57C5303F1FF032DE9804909B44FEA57
:10180000144324EA03484FEA154B25EA0B4E0FF226
:10181000042606EB13273E7803FB0667C7F500078F
:1018200007FB06F64FEAD64606F102064FEA5437A2
:1018300007FB066CCCF1005C4FEA1C472CEA074C16
:101840000CFB06F507FB06F404EB15464FEA96166B
:1018500049085FEA320234BF00204FF000404FEAEF
:10186000D13706FB07FC4FEA1C4C0CFB0BF7D21BD5
:1018700003FB0CF761EB07010CFB0EF7B0EB074025
:1018800072EB17420CFB08F734BFA2EB0742B2EB36
:10189000074261EB17414FEA0C444FEA910706FB00
:1018A00007FC4FEA1C4C0CFB0BF7B0EBC74072EB8C
:1018B000573203FB0CF734BFA2EBC742B2EBC7426F
:1018C00061EB57310CFB0EF7B0EBC70072EB5772B0
:1018D0000CFB08F734BFA2EBC702B2EBC70261EB07
:1018E00057714FEA816141EA92114FEA826242EAFE
:1018F00090124FEA806004EBCC04039F4FEAD1378B
:1019000006FB07FC4FEA1C4C0CFB0BF7D21B03FB3E
:101910000CF761EB07010CFB0EF7B0EB074072EB25
:1019200017420CFB08F734BFA2EB0742B2EB0742A9
:1019300061EB17414FEA8C5504EB9C244FEA910769
:1019400006FB07FC4FEA1C4C0CFB0BF7B0EBC74047
:1019500072EB573203FB0CF734BFA2EBC742B2EB7A
:10196000C74261EB57310CFB0EF7B0EBC70072EBCF
:1019700057720CFB08F734BFA2EBC702B2EBC702E9
:1019800061EB57714FEA816141EA92114FEA82623D
:1019900042EA90124FEA806015EB4C2544F10004B6
:1019A0004FEAD13706FB07FC4FEA1C4C0CFB0BF748
:1019B000D21B03FB0CF761EB07010CFB0EF7B0EB3E
:1019C000074072EB17420CFB08F734BFA2EB07424B
:1019D000B2EB074261EB17414FEA813141EA924194
:1019E0004FEA823242EA90424FEA80304FEA0C7668
:1019F00015EB1C1544F1000448EA03434EEA0B487A
:101A00004FF0000EB2EB080C71EB030724BF6246E7
:101A100039464EEB0E0E4FF0000B00185241494173
:101A20004BEB0B0BB2EB080C71EB03077BF1000BDC
:101A300024BF624639464EEB0E0E4FF0000B0018E5
:101A4000524149414BEB0B0BB2EB080C71EB030716
:101A50007BF1000B24BF624639464EEB0E0E51EA75
:101A6000020718BF46F0010616EB0E7655F100028C
:101A700054F1000103D5BDE88901BDE80088BDE847
:101A80008901BDE80048B619524141EB0101A3F1BB
:101A90000103704780807F7E7D7C7B7A79787776C2
:101AA00076757473727171706F6E6E6D6C6C6B6A3B
:101AB0006A696868676666656464636362616160D9
:101AC000605F5F5E5E5D5D5C5C5B5B5A5A59595856
:101AD00058575756565555555454535352525251C0
:101AE000515050504F4F4F4E4E4D4D4D4C4C4C4B16
:101AF0004B4B4A4A4A49494948484847474747465D
:101B00004646454545444444444343434342424298
:101B1000424141419C46002B30D477002BD04FEA04
:101B200037071CB503B44FF010004FF01001BAF1A5
:101B3000000F06D0BCF1000FDCBF40F0080040F001
:101B400008014FF000000FBCBDE810400BF1010B85
:101B5000BBF1010F08BF5FEA170722BF12F10102B4
:101B600011F101014FF0004143F1000300F000408A
:101B700043EA00007047F9D35708D0E746EA064623
:101B80004FEA164613F1400F1FDD13F1200FDFBFA0
:101B900016430A46002120335B42BED0C3F1200722
:101BA00046EA06464FEA164602FA07F746EA0706ED
:101BB00022FA03F2C3F1200701FA07F742EA07020B
:101BC00021FA03F14FF00003A7E746EA020646EACE
:101BD00006464FEA164646EA0106BCBF46EA0646F6
:101BE000360C4FF000034FF000024FF0000194E775
:101BF0002DE9804C70B49A46934691E8380007C8A6
:101C000031EA400C48BF34EA430C03D5FFF7E6FD48
:101C1000FFF780FFF0BCBDE8008C2DE9804C70B46C
:101C20009A46934691E8380007C810F0804F08BFE5
:101C300013F0804F03D100F005F8FFF76BFFF0BC05
:101C4000BDE8008C20F07F4723F07F4C80EA030042
:101C500000F0004007EB0C03A3F57C53A3F1FE0357
:101C600092F0000F00F0B38095F0000F00F0778045
:101C70002DE901494FEA114021EA00484FEA144694
:101C800024EA064700FB06FC08FB06F607FB08F8FB
:101C900018EB06484CEB164C00FB07F718EB07480F
:101CA0004CEB17404FEA124B22EA0B4E4FEA154617
:101CB00025EA06470BFB06FC0EFB06F607FB0EFEAD
:101CC0001EEB064E4CEB164C0BFB07F71EEB074EBC
:101CD0004CEB174B18EB0B0840F1000018EB0E0B08
:101CE00058EB000840F100008F1A4FF000014FF050
:101CF00000063CBFC943661B14BFB5EB040C0021B2
:101D00003CBFC943F61B4FEA174427EA04454FEA94
:101D10001C472CEA074C04FB076205FB07F70CFB8A
:101D200005F616EB074642EB174204FB0CFC16EBDC
:101D30000C4642EB1C421BEB060658EB02024141EB
:101D40004EEA8E0E46EA9E0601D5BDE80189B61917
:101D5000524141EB0101A3F10103BDE801894FEAC2
:101D6000144524EA05464FEA114721EA074C05FBD2
:101D700007F406FB07F70CFB06F111EB074144EBF8
:101D8000174405FB0CFC11EB0C4144EB1C444FEADF
:101D9000124722EA074C05FB07F206FB07F70CFB8C
:101DA00006F616EB074642EB174205FB0CFC16EB5A
:101DB0000C4642EB1C456A1854F1000148BF7047BD
:101DC000B619524141EB0101A3F10103704795F0AF
:101DD000000F37D04FEA114221EA02464FEA14477A
:101DE00024EA074C02FB07F106FB07F70CFB06F49D
:101DF00014EB074441EB174102FB0CFC14EB0C44C1
:101E000041EB1C414FEA154725EA074C02FB07F559
:101E100006FB07F70CFB06F616EB074645EB1745E6
:101E200002FB0CFC16EB0C4645EB1C42121951F15F
:101E3000000148BF7047B619524141EB0101A3F1BF
:101E4000010370474FEA144524EA05464FEA11475B
:101E500021EA074C05FB07F106FB07F70CFB06F22E
:101E600012EB074241EB174105FB0CFC12EB0C4255
:101E700051EB1C414FF0000648BF7047921841EBF0
:101E80000101A3F10103704703B4019841000098D8
:101E900050EAC12018BF04204A0D18BF40F00100CD
:101EA00040F2FF72B2EB515F08BF40F00200012820
:101EB00008BF052002B0704730380A2801D201203F
:101EC000704700207047000010B500290AD008783C
:101ED000002807D005487844FEF72EFE002801D0E0
:101EE000002010BD0248784410BD0000F20100003F
:101EF000EA0100000808A0F500114FEA310170471F
:101F000043004FEAD30C4FEA3C0C43401FBF40074D
:101F10000CF1605113F0FE4F70471CF0006F03D1BD
:101F20000CF00041002070470CF0004343EA507071
:101F300040EACC0010B500F00EF800BF000000929F
:101F40004FEA0001FFF7D6BF4FF00041A1F5002195
:101F50004FF0000070470EF1020E2EF0030E5EF8F7
:101F6000044B244204D44FEA4102B2F17F4F11D80E
:101F70004FEA4003B3F17F4F0CD80ED14FEAD07C2B
:101F80000CEB4C0C0CF1020CB2F17F4F08BF4CEB88
:101F9000D17C04E04FF0080C01E04FEAD17C0CEB5F
:101FA0004C0324FA03F404F00704B4F1040C06D241
:101FB0000EEB840CBDE810404CF0010C6047DFE8EC
:101FC0000CF0070802024FF00040A0F5800010BDA1
:101FD0000846420018BFD2F1807288BF00F000406E
:101FE00010BDF1EE100A4FF6FF71C0F2C03120EAC9
:101FF000010040F04070E1EE100A7047FEF701BBAF
:1020000002400000000000A00000000005400000A9
:10201000000000C8000000000C4000000000409CD0
:1020200000000000194000000020BCBE00000000BD
:1020300034400000BFC91B8E00000004B540000002
:10204000504BCFD06607E2CF010000006C4100008A
:102050003E8251AADFEEA73401000000D942000001
:10206000DCB5A0E23A301F97FFFFFFFFB445000048
:10207000FD25A0C8E9A3C14FFFFFFFFFFF3F000000
:102080000000008000000000FF3F00000000008012
:1020900000000000202020202020202020202020C0
:1020A0002020202000000000E82000080000002080
:1020B00008000000F8010008F020000808000020D7
:1020C00068060000180200081C0000004300000021
:1020D000F8FFFFFF0C0000000E0000000F000000E2
:1020E0002E000000000000000100000010000000B1
:040000050800019559
:00000001FF
